:10000000020003758147120147E582600302006F19
:10001000780079007A007B007C007D00EC4D601C4C
:1000200088828983E493A3A882A9838A828B83F040
:10003000A3AA82AB831CBCFFE31D80E07582007520
:1000400083007C007D00EC4D600AE4F0A31CBCFF43
:10005000F51D80F27582007583007C007D00EC4DFB
:10006000600AE4F0A31CBCFFF51D80F212014612E9
:10007000041380FE457874656E73696F6E20747921
:1000800070653A20253032782020253032782020C3
:1000900025303278202025303278202025303278E3
:1000A0002020253032780A001B5B324A1B5B313B33
:1000B0003148000A0A45464D384C423120574949DB
:1000C000204E756E636875636B204932432052651C
:1000D000616465720A004F66667365745F583A25FD
:1000E0003464204F66667365745F593A2534640A38
:1000F0000A00427574746F6E73285A3A25632C2077
:10010000433A256329204A6F79737469636B282504
:1001100034642C202534642920416363656C657246
:100120006F6D65746572282533642C202533642C2B
:1001300020253364291B5B304A0D003C4E4F20467E
:100140004C4F41543E002275A7007597DE7597AD60
:1001500075FF8075EF0675A71075C12075A700752E
:10016000A90075A900E5A930E7FB75A90375A903E6
:10017000E5A930E7FB759810758DE6858D8B538961
:100180000F438920D28ED29943A41075E10575E200
:100190000075E340438E045389F0438902758C1047
:1001A000758A10D28C75C15C43C18075820022AA09
:1001B00082ABA775A71043A60175A2C075A3E685FB
:1001C000A2A485A3A5C29FD29A7C00C3EC9A500832
:1001D000109F0280FB0C80F3C29A8BA7228582C2FB
:1001E000C2C030C0FD22C2C030C0FD85C28222D252
:1001F000C1D2C5C2C4C2C030C0FDC2C522D2C4C2B1
:10020000C0221201EF7582A41201DD7582F0120185
:10021000DD7582551201DD1201FD7582011201AFFB
:100220001201EF7582A41201DD7582FB1201DD75EA
:1002300082001201DD1201FD7582011201AF12016F
:10024000EF7582A41201DD7582FA1201DD1201FD43
:100250007582031201AF1201EF7582A51201DD7ADA
:1002600000BA06005015EA2423F8C002C0001201AB
:10027000E6E582D000D002F60A80E6C2C11201FD96
:100280007582031201AF30004BAA287B00AC277D9A
:1002900000852629752A0085252B752C0085242D9F
:1002A000752E00AE237F00C002C003C004C005C08D
:1002B00029C02AC02BC02CC02DC02EC006C0077478
:1002C00074C0E07400C0E07480C0E01205B0E58145
:1002D00024F1F5811201EF7582A41201DD7582F01F
:1002E0001201DD7582AA1201DD1201FD7582011273
:1002F00001AF1201EF7582A41201DD758240120177
:10030000DD7582001201DD7582001201DD7582004B
:100310001201DD7582001201DD7582001201DD75AA
:1003200082001201DD1201FD7582011201AF12017E
:10033000EF7582A41201DD7582401201DD75820025
:100340001201DD7582001201DD7582001201DD757A
:1003500082001201DD7582001201DD75820012013A
:10036000DD1201FD7582011201AF1201EF7582A449
:100370001201DD7582401201DD7582001201DD750A
:1003800082001201DD7582001201DD75820012010A
:10039000DD1201FD7582010201AFAA82AB83ACF0D0
:1003A000C002C003C0041201EF7582A41201DD7502
:1003B00082001201DD1201FD7582031201AF1201EC
:1003C000EF7582A51201DDD004D003D0027D00BDFF
:1003D0000600503AED2AFEE43BFF8C00C002C00349
:1003E000C004C005C006C007C0001201E6E582D007
:1003F00000D007D006D005D004D003D00264172463
:1004000017F98E828F8388F01205D10D80C1C2C189
:100410000201FD74A8C0E07400C0E07480C0E01266
:1004200005B015811581158174B3C0E07400C0E07A
:100430007480C0E01205B01581158115817582C8E0
:100440001201AFD2001202027582641201AF900055
:100450002F75F04012039AAA2F7B00EA2480F53909
:10046000EB34FFF53AAC307D00EC2480F53BED3405
:10047000FFF53CC03BC03CC039C03A74D6C0E07404
:1004800000C0E07480C0E01205B0E58124F9F58178
:1004900090002F75F04012039AAE2F7F00EE24805B
:1004A000FEEF34FFFFEEC39539F535EF953AF5369B
:1004B000AE307F00EE2480FEEF34FFFFEEC3953BAD
:1004C000F537EF953CF538E53175F004A4FEAFF053
:1004D000E53275F004A4F53D85F03EE53375F00492
:1004E000A4F53F85F040E534139201E534A2E19292
:1004F00002E53430E20774022EFEE43FFFE53430BB
:10050000E3050EBE00010FE53430E40B7402253D17
:10051000F53DE4353EF53EE53430E508053DE4B50E
:100520003D02053EE53430E60B7402253FF53FE41D
:100530003540F540E53430E708053FE4B53F0205B6
:10054000403002047A3180027A30EA3395E0FB30A1
:1005500001057541318003754130E541FC3395E07B
:10056000FDC03FC040C03DC03EC006C007C037C050
:1005700038C035C036C002C003C004C00574F2C024
:10058000E07400C0E07480C0E01205B0E58124EFA3
:10059000F5817582641201AF020490020C0A858213
:1005A0001885831985F01A85091B90059B0206732F
:1005B000C008858108E50824FBF51BE50824FBF845
:1005C000861808861908861A90059B120673D008AB
:1005D0002220F71030F6118883A88220F507F6A8AC
:1005E0008375830022F280F7F022AA8274FBC0E0B8
:1005F0007405C0E0C00AC00B8A82220511E4B5115F
:1006000002051222AA8274302AFA24C6500A7407FC
:100610002AFA3003034302208A820205EAE582FABD
:10062000C4540FF582C002120604D002740F5AF5AA
:1006300082020604AA0CAB0DAC0EAD0FAE107517FE
:1006400020EE2EFEED235401FF4206EA2AFAEB3398
:10065000FBEC33FCED33FDC3EE95134008EEC39580
:1006600013FE430201D517D98A0C8B0D8C0E8D0F0A
:100670008E102285820A85830BE4F511F512AA18E3
:10068000AB19AC1A8A828B838CF0120C1FFD74019B
:100690002AF518E43BF5198C1AEDFA7003020C03E5
:1006A000BA25028003020BFBC207C208C209C20AB4
:1006B000C20BC20CC20DC20EC204C205C206751323
:1006C000007514007515FFAB18AC19AD1A8B828C30
:1006D000838DF0120C1FFAA3AB82AC838B188C199C
:1006E0008D1ABA25078A821205EA80928A06BE30E0
:1006F00000402E8A06EE24C6402774FFB51513E588
:100700001475F00AA4FEEA24D02EF51470BFD208A6
:1007100080BBE51575F00AA4FEEA24D02EF51580FD
:10072000ACBA2E0A74FFB515A4751500809F8A0611
:10073000BE6100400E8A06EE248540075302DFD2D8
:10074000038002C203BA20028075BA23030207CED7
:10075000BA2A030207D3BA2B02805FBA2D02805552
:10076000BA4202805FBA4303020818BA440302097E
:1007700053BA450302096DBA4603020969BA470331
:10078000020971BA4903020953BA4C02803BBA4EBE
:1007900003020975BA4F0302095ABA50030208EC62
:1007A000BA530302083CBA550302095FBA58030260
:1007B000096402099FD2070206CDD2090206CDD2F2
:1007C0000A0206CDD20C0206CDD20D0206CDD20E03
:1007D0000206CD74FFB51520300C0BE51B14F8880C
:1007E0001B86140206CDE51B24FEF8881B8606082E
:1007F0008607188E140206CD300C0BE51B14F88802
:100800001B86150206CDE51B24FEF8881B8606080C
:100810008607188E150206CD300C0AE51B14F888E1
:100820001B8602800FE51B24FEF8881B86030886C2
:1008300004188B028A821205EA0209A4E51B24FD32
:10084000F8881B860308860408860518188B0C8C0C
:100850000D8D0E8B828C838DF0120C3BAB82AC83A2
:100860008B1674FFB5150385161520071DC3E516F5
:1008700095145016E514C39516F514AB141514EB26
:1008800060087582201205EA80F1850C82850D834F
:10089000850EF0120C1FFBFA6029AB151515C3E489
:1008A00064808BF063F08095F050188A821205EA1C
:1008B000AB0CAC0DAD0E0BBB00010C8B0C8C0D8D7D
:1008C0000E80C72007030209A4C3E5169514400350
:1008D0000209A4E514C39516F514AB141514EB70B6
:1008E000030209A47582201205EA80EEE51B24FDAF
:1008F000F8881B860308860408860518188B0C8C5C
:100900000D8D0EE50EFB30E7047A438013EB546047
:1009100060047A50800AEB30E6047A4980027A5803
:100920008A82C0021205EA75823A1205EA7582309F
:100930001205EA7582781205EAD002BA4902800BE4
:10094000BA50028006850D8212061D850C821206A1
:100950001D8051D20B75130A804A751308804575A6
:10096000130A8040751310803BD2048037D2058073
:1009700033D206802FE51B24FDF8881B86030886EA
:100980000408860518188B0C8C0D8D0E8B828C83B9
:100990008DF0E5111205D1A3E5121205D180058A6B
:1009A000821205EA20040620050330065AE51B24BE
:1009B000FCF8881B86030886040886050886061846
:1009C00018188B0C8C0D8D0E8E0F750C3B750D0150
:1009D000750E80850C1C850D1D850E1E7401251C51
:1009E000FEE4351DFFAB1E8E0C8F0D8B0E851C8219
:1009F000851D83851EF0120C1FFBFA700302067E14
:100A00008A821205EA80CCE513700302067E7B47DA
:100A1000300C2BE51B14F8881BE6FC3395E0FDFE3B
:100A2000FF8C0C8D0D8E0E8F0F200B5EAC0C7D009D
:100A30007E007F008C0C8D0D8E0E8F0F804C300D44
:100A40001FE51B24FCF8881B86040886050886061B
:100A50000886071818188C0C8D0D8E0E8F0F802AA3
:100A6000E51B24FEF8881B860408860518ED3395DF
:100A7000E0FEFF8C0C8D0D8E0E8F0F200B0CAC0C3E
:100A8000AD0D7E007F008E0E8F0F300E43E50C45BE
:100A90000D450E450F60397408B5130C758230C0D2
:100AA000031205EAD00380287410B5132375823031
:100AB000C0031205EAD00330030C758278C003121C
:100AC00005EAD003800A758258C0031205EAD003F4
:100AD000300B25AC0CAD0DAE0EE50FFF30E717C3A4
:100AE000E49CFCE49DFDE49EFEE49FFF8C0C8D0DD8
:100AF0008E0E8F0F8002C20B751600D20F8B007501
:100B00001000C000120634D000200F0DE510C4FC08
:100B1000E6FD4CF61888038002A6100516B20FE514
:100B20000C450D450E450F70D68803E5147003750E
:100B3000140120081A200717E51604FCC395145069
:100B40000E758220C0031205EAD003151480E93027
:100B50000B0E75822DC0031205EAD00315148024F4
:100B6000E516602030090E75822BC0031205EAD00D
:100B7000031514800F300A0C758220C0031205EA99
:100B8000D003151420071EAC141514C3E5169C5091
:100B9000273008047C3080027C208C82C003120540
:100BA000EAD00380E2C3E51695145009E514C39515
:100BB00016F51480037514008B00AB161516EB6048
:100BC00022B20F200F0A08E6C4540FFB8B108007D7
:100BD0008603740F5BF510851082C000120604D0E6
:100BE0000080D720070302067EAB141514EB7003B8
:100BF00002067E7582201205EA80EE8A821205EADC
:100C000002067E85118285128322AA82BA0A081002
:100C1000990280FB75990D10990280FB8A99222018
:100C2000F71430F6148883A88220F507E6A88375A8
:100C3000830022E280F7E49322E022AA82AB83AC15
:100C4000F07D007E008A828B838CF0120C1FFFA344
:100C5000AA82AB83EF60070DBD00EA0E80E78D82AC
:100C60008E83220000000000000000000000000051
:00000001FF
