:10000000020086E4F525F526E4F527F528E4F52930
:10001000F52AE4F52BF52CE4F52DF52EE4F52FF576
:1000200030220000000000000000000202E3000097
:100080000000000202AD75817B120D52E582600313
:100090000200F2780079007A007B007C007D00ECA1
:1000A0004D601C88828983E493A3A882A9838A82F5
:1000B0008B83F0A3AA82AB831CBCFFE31D80E07599
:1000C00082007583007C007D00EC4D600AE4F0A3A3
:1000D0001CBCFFF51D80F27582007583007C007DDD
:1000E00000EC4D600AE4F0A31CBCFFF51D80F21289
:1000F00000031203BC80FE74686973776F726B69CA
:100100006E67001B5B324A004E6577206672657130
:1001100075656E63793D00256C7500536F72727959
:1001200020256C7520487A206973206F7574206FC4
:10013000662072616E67652E0A000A4163747561FC
:100140006C206672657175656E63793A20256C75F1
:100150000A000A0A45464D384C4231205749492089
:100160004E756E636875636B20493243205265613A
:100170006465720A005661726961626C652066721C
:10018000657175656E63792067656E657261746F00
:100190007220666F72207468652045464D384C4267
:1001A000312E0D0A436865636B2070696E732050B1
:1001B000322E3020616E642050312E3720776974E2
:1001C0006820746865206F7363696C6C6F73636F0C
:1001D00070652E0D0A004F66667365745F583A2588
:1001E0003464204F66667365745F593A2534640A37
:1001F0000A006D6F64653A72656D6F7465007269AF
:1002000067687400427574746F6E73285A3A256378
:100210002C20433A256329204A6F79737469636BF4
:10022000282534642C202534642920416363656CBF
:1002300065726F6D65746572282533642C202533D3
:10024000642C20253364291B5B304A0D006C6566E5
:100250007400666F7277617264006261636B7761CC
:100260007264006D6F64653A747261636B00457807
:1002700074656E73696F6E20747970653A202530ED
:100280003278202025303278202025303278202006
:1002900025303278202025303278202025303278E1
:1002A0000A003C4E4F20464C4F41543E00C0D07592
:1002B000D008C29FD0D032AA82AB838A048B051AA1
:1002C000BAFF011BEC4D601A5331EFE5327598000F
:1002D00075A23075A3F8433104E532E53120E7DB40
:1002E00080F922C020C0E0C0F0C082C083C002C03C
:1002F00003C004C005C006C007C000C001C0D0755F
:10030000D000E527452870030203967401B5250641
:10031000E4B5260280028012C2CFB2A09002BC12C5
:1003200002B7A2A0B3929702039F7402B52506E418
:10033000B5260280028017C2CFB2A090012C120213
:10034000B7A2A0B392979000FA1202B7805174033B
:10035000B52506E4B5260280028017C2CFB2A09070
:1003600000FA1202B7A2A0B392979000FA1202B755
:10037000802D7404B52506E4B5260280028020C2D3
:10038000CFB2A090003E1202B7A2A0B39297900005
:10039000FA1202B78009C2CFB2A0A2A0B39297D03E
:1003A000D0D001D000D007D006D005D004D003D0E3
:1003B00002D083D082D0F0D0E0D02032E5CAE5CBA5
:1003C000121093751D01D20B9000F775F08012107A
:1003D000C57403C0E07401C0E07480C0E01212670D
:1003E0001581158115817408C0E07401C0E0748026
:1003F000C0E01212671581158115817439C0E0744F
:1004000000C0E07440C0E07417C0E07401C0E07444
:1004100080C0E012117AE58124FAF581E5392539A9
:10042000F562E53A33F563E53B33F564E53C33F5D6
:100430006590A20075F04A740412119BAA82AB83E6
:10044000ACF0FDC374FF9A74FF9BE49CE49D5020C4
:10045000C039C03AC03BC03C741BC0E07401C0E06E
:100460007480C0E0121267E58124F9F5810204F17D
:10047000C2CAE4C39AFAE49BFB74019CE49D8ACA55
:100480008BCB85CA92E5CBC59225E0C59233F59317
:10049000D2CAE5CAE5CBAACAABCBE4FCFDC39AFA43
:1004A000E49BFB74019CFCE49DFDEA2AF562EB33BE
:1004B000F563EC33F564ED33F56590A20075F04A11
:1004C0007404121200AA82AB83ACF0FD8A398B3A15
:1004D0008C3B8D3CC002C003C004C005743AC0E030
:1004E0007401C0E07480C0E0121267E58124F9F560
:1004F000817452C0E07401C0E07480C0E0121267E1
:100500001581158115817475C0E07401C0E0748097
:10051000C0E01212671581158115817582C8120D10
:10052000D8D20A120E2B758264120DD89000337542
:10053000F040120FC3AA337B00EA2480F541EB346C
:10054000FFF542AC347D00EC2480F543ED34FFF53B
:1005500044C043C044C041C04274D6C0E07401C02E
:10056000E07480C0E0121267E58124F9F581900003
:100570003375F040120FC3AE337F00EE2480FEEFE0
:1005800034FFFFEEC39541F53DEF9542F53EAC34A7
:100590007D00EC2480FCED34FFFDECC39543F53F7A
:1005A000ED9544F540E53575F004A4FAABF0E53679
:1005B00075F004A4F54585F046E53775F004A4F51B
:1005C0004785F048E538139208E538A2E19209E53D
:1005D0003830E20774022AFAE43BFBE53830E305E1
:1005E0000ABA00010BE53830E40B74022545F545E5
:1005F000E43546F546E53830E5080545E4B54502FD
:100600000546E53830E60B74022547F547E43548E2
:10061000F548E53830E7080547E4B5470205487571
:100620001D01D20B9001F275F080C002C0031210C0
:10063000C5D003D002C3E53D9450E53E648094806C
:10064000500302079A751D02D20B9001FE75F080CF
:10065000C002C0031210C5D003D002752D01E4F50D
:100660002EC3E53D9450E53E64809480500302071C
:100670009A90003375F040120FC3853349754A00D4
:10068000E5492480F549E54A34FFF54AE549C39533
:1006900041F53DE54A9542F53E853449754A00E508
:1006A000492480F549E54A34FFF54AE549C39543B5
:1006B000F53FE54A9544F540E53575F004A4FAABFD
:1006C000F0E53675F004A4F54585F046E53775F09C
:1006D00004A4F54785F048E538139208E538A2E10F
:1006E0009209E53830E20774022AFAE43BFBE53868
:1006F00030E3050ABA00010BE53830E40B7402253B
:1007000045F545E43546F546E53830E5080545E468
:10071000B545020546E53830E60B74022547F54736
:10072000E43548F548E53830E7080547E4B54702C1
:1007300005483009047E3180027E30EE3395E0FFBB
:100740003008057549318003754930E549FC33951A
:10075000E0FDC002C003C047C048C045C046C0025B
:10076000C003C03FC040C03DC03EC006C007C0047B
:10077000C0057404C0E07402C0E07480C0E01212CE
:1007800067E58124EFF581758264120DD8D003D01E
:1007900002752504E4F526020661E4F52DF52EF533
:1007A00025F526C374B0953D747F853EF063F080D7
:1007B00095F050030208FC751D02D20B90024D7596
:1007C000F080C002C0031210C5D003D002752F0103
:1007D000E4F530C374B0953D747F853EF063F080DE
:1007E00095F050030208FC90003375F040120FC3DF
:1007F000AC337D00EC2480FCED34FFFDECC395416F
:10080000F53DED9542F53EAC347D00EC2480FCEDE9
:1008100034FFFDECC39543F53FED9544F540E535D8
:1008200075F004A4FAABF0E53675F004A4F545853F
:10083000F046E53775F004A4F54785F048E5381330
:100840009208E538A2E19209E53830E20774022AFD
:10085000FAE43BFBE53830E3050ABA00010BE53862
:1008600030E40B74022545F545E43546F546E53898
:1008700030E5080545E4B545020546E53830E60BA8
:1008800074022547F547E43548F548E53830E70870
:100890000547E4B5470205483009047C3180027CF5
:1008A00030EC3395E0FD3008047E3180027E30EE7E
:1008B0003395E0FFC002C003C047C048C045C046F2
:1008C000C002C003C03FC040C03DC03EC004C00520
:1008D000C006C0077404C0E07402C0E07480C0E0C9
:1008E000121267E58124EFF581758264120DD8D06C
:1008F00003D002752503E4F5260207D3E4F52FF5AE
:1009000030F525F526C3E53F9450E540648094809A
:100910005003020A5B751D02D20B90025275F080E3
:10092000C002C0031210C5D003D002752901E4F53E
:100930002AC37450953FE464808540F063F080954D
:10094000F04003020A5B90003375F040120FC3AC15
:10095000337D00EC2480FCED34FFFDECC39541F5C4
:100960003DED9542F53EAC347D00EC2480FCED3449
:10097000FFFDECC39543F53FED9544F540E5357536
:10098000F004A4FAABF0E53675F004A4F54585F063
:1009900046E53775F004A4F54785F048E53813922D
:1009A00008E538A2E19209E53830E20774022AFA34
:1009B000E43BFBE53830E3050ABA00010BE53830CB
:1009C000E40B74022545F545E43546F546E5383037
:1009D000E5080545E4B545020546E53830E60B7403
:1009E000022547F547E43548F548E53830E708057E
:1009F00047E4B5470205483009047C3180027C3069
:100A0000EC3395E0FD3008047E3180027E30EE3319
:100A100095E0FFC002C003C047C048C045C046C003
:100A200002C003C03FC040C03DC03EC004C005C0BE
:100A300006C0077404C0E07402C0E07480C0E01215
:100A40001267E58124EFF581758264120DD8D00319
:100A5000D002752501E4F526020931E4F529F52ACD
:100A6000F525F526C374B0953F747F8540F063F09B
:100A70008095F05003020BBD751D02D20B90025AF7
:100A800075F080C002C0031210C5D003D002752BD0
:100A900001E4F52CC374B0953F747F8540F063F09A
:100AA0008095F05003020BBD90003375F040120F9B
:100AB000C3AC337D00EC2480FCED34FFFDECC3952A
:100AC00041F53DED9542F53EAC347D00EC2480FCD3
:100AD000ED34FFFDECC39543F53FED9544F540E55E
:100AE0003575F004A4FAABF0E53675F004A4F545CD
:100AF00085F046E53775F004A4F54785F048E538FC
:100B0000139208E538A2E19209E53830E207740251
:100B10002AFAE43BFBE53830E3050ABA00010BE5AD
:100B20003830E40B74022545F545E43546F546E5D5
:100B30003830E5080545E4B545020546E53830E6B8
:100B40000B74022547F547E43548F548E53830E7AA
:100B5000080547E4B5470205483009047C318002A6
:100B60007C30EC3395E0FD3008047E3180027E302D
:100B7000EE3395E0FFC002C003C047C048C045C087
:100B800046C002C003C03FC040C03DC03EC004C01C
:100B900005C006C0077404C0E07402C0E07480C0E1
:100BA000E0121267E58124EFF581758264120DD899
:100BB000D003D002752502E4F526020A94E4F52B51
:100BC000F52CF525F5263009047C3180027C30ECCB
:100BD0003395E0FD3008047E3180027E30EE33959F
:100BE000E0FFC047C048C045C046C002C003C03F88
:100BF000C040C03DC03EC004C005C006C00774046C
:100C0000C0E07402C0E07480C0E0121267E5812485
:100C1000EFF581758264120DD830080302056E75F8
:100C20001D01D20B90026375F0801210C5758264AD
:100C3000120DD8752701E4F528200903020D46900E
:100C4000003375F040120FC3AC337D00EC2480FC00
:100C5000ED34FFFDECC39541F53DED9542F53EAC1D
:100C6000347D00EC2480FCED34FFFDECC39543F5AE
:100C70003FED9544F540E53575F004A4FAABF0E599
:100C80003675F004A4F54585F046E53775F004A403
:100C9000F54785F048E538139208E538A2E1920956
:100CA000E53830E20774022AFAE43BFBE53830E32A
:100CB000050ABA00010BE53830E40B74022545F54E
:100CC00045E43546F546E53830E5080545E4B545E3
:100CD000020546E53830E60B74022547F547E43552
:100CE00048F548E53830E7080547E4B547020548C8
:100CF0003009047C3180027C30EC3395E0FD300813
:100D0000047E3180027E30EE3395E0FFC047C0485C
:100D1000C045C046C002C003C03FC040C03DC03E49
:100D2000C004C005C006C0077404C0E07402C0E07F
:100D30007480C0E0121267E58124EFF5817582644A
:100D4000120DD8020C39E4F527F528F525F5260211
:100D5000056E75A7007597DE7597AD43FF8075EF3B
:100D60000275A71075C12075A70075A90075A900A7
:100D7000E5A930E7FB75A90375A903E5A930E7FBF1
:100D800043A60343A41075E10575E20075E34075C1
:100D90009810858E8E758DE6858D8B53890F4389CE
:100DA00020D28ED29975C15C43C180438E04538991
:100DB000F0438902758C10758A10D28C75C8004377
:100DC0008E1075CAEE75CBF675CEFF75CFFFD2AD1E
:100DD000D2CAD2AF75820022AA82ABA775A71043F0
:100DE000A60175A2C075A3E685A2A485A3A5C29F8E
:100DF000D29A7C00C3EC9A5008109F0280FB0C80B2
:100E0000F3C29A8BA7228582C2C2C030C0FD22C223
:100E1000C030C0FD85C28222D2C1D2C5C2C4C2C008
:100E200030C0FDC2C522D2C4C2C022120E187582C3
:100E3000A4120E067582F0120E06758255120E0669
:100E4000120E26758201120DD8120E187582A41288
:100E50000E067582FB120E06758200120E06120E29
:100E600026758201120DD8120E187582A4120E0674
:100E70007582FA120E06120E26758203120DD81212
:100E80000E187582A5120E067A00BA06005015EAF1
:100E90002411F8C002C000120E0FE582D000D0026B
:100EA000F60A80E6C2C1120E26758203120DD830F2
:100EB0000A4BAA167B00AC157D0085141775180027
:100EC000851319751A0085121B751C00AE117F0061
:100ED000C002C003C004C005C017C018C019C01AA2
:100EE000C01BC01CC006C007746EC0E07402C0E026
:100EF0007480C0E0121267E58124F1F581120E18AA
:100F00007582A4120E067582F0120E067582AA1260
:100F10000E06120E26758201120DD8120E18758259
:100F2000A4120E06758240120E06758200120E067D
:100F3000758200120E06758200120E06758200126E
:100F40000E06758200120E06758200120E06120E33
:100F500026758201120DD8120E187582A4120E0683
:100F6000758240120E06758200120E0675820012FE
:100F70000E06758200120E06758200120E0675822C
:100F800000120E06758200120E06120E26758201E0
:100F9000120DD8120E187582A4120E067582401218
:100FA0000E06758200120E06758200120E067582FC
:100FB00000120E06758200120E06120E26758201B0
:100FC000020DD8AA82AB83ACF0C002C003C00412E9
:100FD0000E187582A4120E06758200120E06120EED
:100FE00026758203120DD8120E187582A5120E06F0
:100FF000D004D003D0027D00BD0600503AED2AFE99
:10100000E43BFF8C00C002C003C004C005C006C0A2
:1010100007C000120E0FE582D000D007D006D00521
:10102000D004D003D00264172417F98E828F8388EE
:10103000F01212A40D80C1C2C1020E26D2A5758283
:1010400001120DD8C2A522AA828AE0A2E792A1A22B
:10105000E692A2A2E592A3A2E492A4C00212103CDE
:10106000758201120DD8D0028AE0A2E392A1A2E219
:1010700092A2A2E192A3A2E092A402103CD2A612F4
:101080001047758202020DD8C2A61210477582055C
:10109000020DD8C2A5758214120DD87582331210B4
:1010A00088758233121088758232121088758228F2
:1010B00012108875820C12108875820112108875C2
:1010C0008214020DD8AA82AB83ACF07402B51D0461
:1010D0007DC080027D808D82C002C003C0041210DA
:1010E00088758205120DD8D004D003D0027D007E11
:1010F00000ED2AFFEE3BF88C018F82888389F01285
:101100001288FF60208F82C002C003C004C005C0E7
:101110000612107DD006D005D004D003D0020DBD3C
:1011200000CF0E80CC300B248D028E03C3EA9410C6
:10113000EB648094805015758220C002C0031210A9
:101140007DD003D0020ABA00E30B80E022121875AA
:10115000AA82BA0810758220C00212188875820807
:10116000121888D0028A822285825B85835C85F092
:101170005D851E5E90114D0214CDC010858110E575
:101180001024FBF55EE51024FBF8865B08865C08FE
:10119000865D90114D1214CDD01022FB7A20E4FC14
:1011A000FDFEFFE5822582F582E58333F583E5F0D8
:1011B00033F5F0EB33FB4017DAE98042E582258214
:1011C000F582E58333F583E5F033F5F0EB33FBECA3
:1011D00033FCED33FDEE33FEEF33FFEC9562ED951E
:1011E00063EE9564EF95654013EC9562FCED9563B5
:1011F000FDEE9564FEEF9565FF438201DABEEB22BA
:10120000FBC2D530E715D2D5E4C39582F582E495CB
:1012100083F583E495F0F5F0E49BFBE56530E71793
:10122000B2D5E4C39562F562E49563F563E4956431
:10123000F564E49565F565EB12119B30D513FBE47D
:10124000C39582F582E49583F583E495F0F5F0E4A7
:101250009B2202188885825985835A85F05B851FF9
:101260005C901252021926C010858110E51024FBF3
:10127000F55CE51024FBF8865908865A08865B90D1
:101280001252121926D0102220F71430F614888337
:10129000A88220F507E6A88375830022E280F7E4A0
:1012A0009322E02220F71030F6118883A88220F5DF
:1012B00007F6A88375830022F280F7F022854B821F
:1012C000854C83121F2B85825AE55A600A0554E427
:1012D000B5540605558002D20F855A82227A007BCA
:1012E00000300F05786C760022C002C0031212BDD8
:1012F000AC82D003D002BC0002802DBC0802801456
:10130000BC09028023BC0A02801EBC0D028019BCED
:1013100020218014EA4B60D11ABAFF011B155474C6
:10132000FFB55402155580C1EA4B60BDEA246CF844
:10133000760022EC7009EA246CF87600D20F22ECD9
:10134000B55907EA246CF8760022C3EA940FEB94AF
:101350000050968A058B060ABA00010BED246CF842
:10136000A6040212E9AA827B7FC3EA648094B0409B
:101370001174B98AF063F08095F04006EA24D0FB3E
:101380008030C3EA648094C1401174C68AF063F06F
:101390008095F0400674C92AFB8017C3EA648094E4
:1013A000E1400F74E68AF063F08095F0400474A980
:1013B0002AFBC3EB955650038B822275827F22AAAB
:1013C000827550007551007552007553008A00E611
:1013D000FA60148A82C000121365AB82D000C3EB9E
:1013E000955640030880E886038B82C0001213657F
:1013F000AA82D000C3E5569A4050855662756300B4
:101400007564007565008550828551838552F0E5CD
:1014100053C002C000121EBDAB82AC83ADF0FED043
:1014200000D0028B508C518D528E53E4FBFCFDEAB0
:101430002550FAEB3551FBEC3552FCED3553FD8A66
:10144000508B518C528D5308809D855082855183DD
:101450008552F0E55322AA827550007551007552ED
:10146000007553008A00E6FB60228B82C003C00037
:10147000121365AC82D000D003C3EC9556400DBB6F
:101480002D028008BB2B0280030880DA88028603C5
:10149000BB2D03D38001C39212BB2D028003BB2B53
:1014A000010A8A821213BF301213C3E49550FAE482
:1014B0009551FBE49552FCE49553FD8008AA50AB8E
:1014C00051AC52AD538A828B838CF0ED2285824BD6
:1014D00085834CE4F554F555F558C20FAA5BAB5C17
:1014E000AC5D8A828B838CF0121288FD74012AF520
:1014F0005BE43BF55C8C5DEDFA700302186CBA2579
:10150000028003021805D20EC20C755600755700F2
:10151000C210C211AB5BAC5CAD5D8B828C838DF075
:10152000121288FAA3AB82AC838B5B8C5C8D5D8BD3
:10153000828C838DF0121288F5598A06BE300040E5
:10154000168A06EE24C6400FE55775F00AA4FEEA97
:1015500024D02EF55780C38A06BE6100400A8A0651
:10156000EE248540035302DFBA250280ADBA2A0279
:101570008045BA42028036BA43028040BA44030230
:101580001680BA4903021680BA4C028025BA4E036F
:10159000021693BA4F03021685BA53028020BA5539
:1015A0000302167EBA580302168C0216BBD20C0236
:1015B000151AD20D02151AD21002151AD2112010C6
:1015C00017E55E24FDF8885E860308860408860514
:1015D00018188B4D8C4E8D4FE557700B3011047BD6
:1015E0000180027BFF8B57755600C3E55695575017
:1015F000051212BDAA82300F07E55670030216BB12
:10160000EA601ABA2002800DBA09028008BA0D02F7
:101610008003BA0A03301105E557B5561FE5566039
:10162000C92010120558AB4DAC4EAD4F8B828C8348
:101630008DF0E41212A47556000216BBBA081CE520
:101640005660A7201011AB4DAC4EAD4F1BBBFF0138
:101650001C8B4D8C4E8D4F1556808F20101BAB4D23
:10166000AC4EAD4F8B828C838DF0EA1212A40BBB73
:1016700000010C8B4D8C4E8D4F05560215EAC20EA3
:1016800075560A8036C20E755608802FC20E7556E2
:10169000108028E55E24FDF8885E8603088604082D
:1016A000860518188B4D8C4E8D4F8B828C838DF058
:1016B000E5541212A4A3E5551212A4E556700302D4
:1016C00018051212DD786CE670030218053010035D
:1016D000021805E55E24FDF8885E86030886040886
:1016E000860518188B4D8C4E8D4F0558200E030221
:1016F000177E300D35854D5F854E60854F61758253
:101700006C121456AE82AF83ABF0FC855F828560AD
:10171000838561F0EE1212A4A3EF1212A4A3EB12C0
:1017200012A4A3EC1212A4021805300C26854D5FFA
:10173000854E60854F6175826C121456AE82AF8300
:10174000ABF0FC855F828560838561F0EE1212A4A8
:10175000021805854D5F854E60854F6175826C125C
:101760001456AE82AF83ABF0FC855F8285608385C3
:1017700061F0EE1212A4A3EF1212A4021805300DAC
:1017800034854D5F854E60854F6175826C1213BF45
:10179000AE82AF83ABF0FC855F828560838561F0AC
:1017A000EE1212A4A3EF1212A4A3EB1212A4A3EC44
:1017B0001212A48050300C25854D5F854E60854FF8
:1017C0006175826C1213BFAE82AF83ABF0FC855F94
:1017D000828560838561F0EE1212A48028854D5FBA
:1017E000854E60854F6175826C1213BFAE82AF83E8
:1017F000ABF0FC855F828560838561F0EE1212A4F8
:10180000A3EF1212A4200F030214DCAB5BAC5CAD9F
:101810005D8B828C838DF0121288FEA3AB82AC8329
:101820008B5B8C5C8D5DEEFA70030214DCBA25E1F3
:101830008B828C838DF0121288FABA6E028003BA02
:101840004ECFE55E24FDF8885E860208860608868F
:101850000718188A4D8E4E8F4F8A828E838FF0E53F
:10186000541212A4A3E5551212A480A5AA587B0015
:101870008A828B832210980280FBAA998A82C002F6
:10188000121888D0028A8222AA82BA0A0810990203
:1018900080FB75990D10990280FB8A9922AA8274A7
:1018A000AEC0E07418C0E0C04BC04C8A8222055222
:1018B000E4B55202055322AA8274302AFA24C65093
:1018C0000A74072AFA3013034302208A8202189D01
:1018D000E582FAC4540FF582C0021218B7D0027420
:1018E0000F5AF5820218B7AA4DAB4EAC4FAD50AEB1
:1018F00051755820EE2EFEED235401FF4206EA2AD0
:10190000FAEB33FBEC33FCED33FDC3EE95544008AA
:10191000EEC39554FE430201D558D98A4D8B4E8CA7
:101920004F8D508E512285824B85834CE4F552F5C4
:1019300053AA59AB5AAC5B8A828B838CF012128803
:10194000FD74012AF559E43BF55A8C5BEDFA7003FE
:10195000021EB6BA25028003021EAEC217C218C20A
:1019600019C21AC21BC21CC21DC21EC214C215C299
:10197000167554007555007556FFAB59AC5AAD5BE2
:101980008B828C838DF0121288FAA3AB82AC838B8E
:10199000598C5A8D5BBA25078A8212189D80928ACB
:1019A00006BE3000402E8A06EE24C6402774FFB5DE
:1019B0005613E55575F00AA4FEEA24D02EF55570AD
:1019C000BFD21880BBE55675F00AA4FEEA24D02EDB
:1019D000F55680ACBA2E0A74FFB556A47556008031
:1019E0009F8A06BE6100400E8A06EE24854007539A
:1019F00002DFD2138002C213BA20028075BA230319
:101A0000021A81BA2A03021A86BA2B02805FBA2D03
:101A1000028055BA4202805FBA4303021ACBBA442D
:101A200003021C06BA4503021C20BA4603021C1C12
:101A3000BA4703021C24BA4903021C06BA4C0280AE
:101A40003BBA4E03021C28BA4F03021C0DBA5003C6
:101A5000021B9FBA5303021AEFBA5503021C12BAB3
:101A60005803021C17021C52D217021980D2190205
:101A70001980D21A021980D21C021980D21D0219B3
:101A800080D21E02198074FFB55620301C0BE55C15
:101A900014F8885C8655021980E55C24FEF8885CA1
:101AA0008606088607188E55021980301C0BE55CE7
:101AB00014F8885C8656021980E55C24FEF8885C80
:101AC0008606088607188E56021980301C0AE55CC7
:101AD00014F8885C8602800FE55C24FEF8885C863A
:101AE00003088604188B028A8212189D021C57E58F
:101AF0005C24FDF8885C86030886040886051818AF
:101B00008B4D8C4E8D4F8B828C838DF0121F2DABA5
:101B100082AC838B5774FFB5560385575620171D2B
:101B2000C3E55795555016E555C39557F555AB5533
:101B30001555EB600875822012189D80F1854D8245
:101B4000854E83854FF0121288FBFA6029AB56153B
:101B500056C3E464808BF063F08095F050188A825D
:101B600012189DAB4DAC4EAD4F0BBB00010C8B4D15
:101B70008C4E8D4F80C7201703021C57C3E5579525
:101B8000554003021C57E555C39557F555AB551500
:101B900055EB7003021C5775822012189D80EEE5EC
:101BA0005C24FDF8885C86030886040886051818FE
:101BB0008B4D8C4E8D4FE54FFB30E7047A438013FD
:101BC000EB546060047A50800AEB30E6047A498076
:101BD000027A588A82C00212189D75823A12189DA4
:101BE00075823012189D75827812189DD002BA49FC
:101BF00002800BBA50028006854E821218D0854DA5
:101C0000821218D08051D21B75540A804A7554082C
:101C1000804575540A8040755410803BD21480373B
:101C2000D2158033D216802FE55C24FDF8885C86BF
:101C30000308860408860518188B4D8C4E8D4F8B33
:101C4000828C838DF0E5521212A4A3E5531212A4E4
:101C500080058A8212189D20140620150330165A1A
:101C6000E55C24FCF8885C86030886040886050881
:101C700086061818188B4D8C4E8D4F8E50754DA2C0
:101C8000754E02754F80854D5D854E5E854F5F7444
:101C900001255DFEE4355EFFAB5F8E4D8F4E8B4FB1
:101CA000855D82855E83855FF0121288FBFA700382
:101CB0000219318A8212189D80CCE55470030219F2
:101CC000317B6B301C2BE55C14F8885CE6FC3395AB
:101CD000E0FDFEFF8C4D8D4E8E4F8F50201B5EAC75
:101CE0004D7D007E007F008C4D8D4E8E4F8F50803D
:101CF0004C301D1FE55C24FCF8885C8604088605D2
:101D00000886060886071818188C4D8D4E8E4F8F42
:101D100050802AE55C24FEF8885C86040886051855
:101D2000ED3395E0FEFF8C4D8D4E8E4F8F50201B76
:101D30000CAC4DAD4E7E007F008E4F8F50301E4359
:101D4000E54D454E454F455060397408B5540C7506
:101D50008230C00312189DD00380287410B554231C
:101D6000758230C00312189DD00330130C75827831
:101D7000C00312189DD003800A758258C003121840
:101D80009DD003301B25AC4DAD4EAE4FE550FF301E
:101D9000E717C3E49CFCE49DFDE49EFEE49FFF8CFA
:101DA0004D8D4E8E4F8F508002C21B755700D21F33
:101DB0008B00755100C0001218E7D000201F0DE500
:101DC00051C4FCE6FD4CF61888038002A651055765
:101DD000B21FE54D454E454F455070D68803E55539
:101DE000700375550120181A201717E55704FCC316
:101DF0009555500E758220C00312189DD0031555BD
:101E000080E9301B0E75822DC00312189DD003157A
:101E1000558024E557602030190E75822BC00312BF
:101E2000189DD0031555800F301A0C758220C00301
:101E300012189DD003155520171EAC551555C3E536
:101E4000579C50273018047C3080027C208C82C044
:101E50000312189DD00380E2C3E55795555009E55C
:101E600055C39557F55580037555008B00AB571535
:101E700057EB6022B21F201F0A08E6C4540FFB8BE9
:101E80005180078603740F5BF551855182C00012A3
:101E900018B7D00080D7201703021931AB5515555C
:101EA000EB700302193175822012189D80EE8A8230
:101EB00012189D02193185528285538322AAF0FBA4
:101EC000E5828562F0A4FCADF0E5838562F0A42D87
:101ED000FDE435F0FEE5828563F0A42DFDE5F03EDE
:101EE000FEE433FFEA8562F0A42EFEE5F03FFFE555
:101EF000838563F0A42EFEE5F03FFFE5828564F064
:101F0000A42EFEE5F03FFFEB8562F0A42FFFEA85EB
:101F100063F0A42FFFE5838564F0A42FFFE582859D
:101F200065F0A42F8EF08D838C8222E473AA82AB9D
:101F300083ACF07D007E008A828B838CF012128845
:101F4000FFA3AA82AB83EF60070DBD00EA0E80E716
:101F50008D828E832200000000000000000000003F
:00000001FF
